{
  "_format": "hh-sol-artifact-1",
  "contractName": "Greenergy",
  "sourceName": "contracts/Greenergy.sol",
  "abi": [
    {
      "inputs": [],
      "stateMutability": "nonpayable",
      "type": "constructor"
    },
    {
      "inputs": [
        {
          "internalType": "uint256",
          "name": "",
          "type": "uint256"
        }
      ],
      "name": "Members",
      "outputs": [
        {
          "internalType": "uint256",
          "name": "id",
          "type": "uint256"
        },
        {
          "internalType": "string",
          "name": "name",
          "type": "string"
        },
        {
          "internalType": "string",
          "name": "house",
          "type": "string"
        },
        {
          "internalType": "address payable",
          "name": "acc",
          "type": "address"
        },
        {
          "internalType": "bool",
          "name": "active",
          "type": "bool"
        }
      ],
      "stateMutability": "view",
      "type": "function"
    },
    {
      "inputs": [
        {
          "internalType": "uint256",
          "name": "",
          "type": "uint256"
        }
      ],
      "name": "Requests",
      "outputs": [
        {
          "internalType": "uint256",
          "name": "memid",
          "type": "uint256"
        },
        {
          "internalType": "uint256",
          "name": "reqid",
          "type": "uint256"
        },
        {
          "internalType": "bool",
          "name": "reqStatus",
          "type": "bool"
        }
      ],
      "stateMutability": "view",
      "type": "function"
    },
    {
      "inputs": [
        {
          "internalType": "uint256",
          "name": "_id",
          "type": "uint256"
        }
      ],
      "name": "addMemberWallet",
      "outputs": [],
      "stateMutability": "nonpayable",
      "type": "function"
    },
    {
      "inputs": [],
      "name": "addMembers",
      "outputs": [],
      "stateMutability": "nonpayable",
      "type": "function"
    },
    {
      "inputs": [
        {
          "internalType": "string",
          "name": "_name",
          "type": "string"
        },
        {
          "internalType": "string",
          "name": "_house",
          "type": "string"
        }
      ],
      "name": "createMember",
      "outputs": [],
      "stateMutability": "nonpayable",
      "type": "function"
    },
    {
      "inputs": [],
      "name": "getMembers",
      "outputs": [
        {
          "components": [
            {
              "internalType": "uint256",
              "name": "id",
              "type": "uint256"
            },
            {
              "internalType": "string",
              "name": "name",
              "type": "string"
            },
            {
              "internalType": "string",
              "name": "house",
              "type": "string"
            },
            {
              "internalType": "address payable",
              "name": "acc",
              "type": "address"
            },
            {
              "internalType": "bool",
              "name": "active",
              "type": "bool"
            }
          ],
          "internalType": "struct Greenergy.Member[]",
          "name": "",
          "type": "tuple[]"
        }
      ],
      "stateMutability": "view",
      "type": "function"
    },
    {
      "inputs": [],
      "name": "getRequests",
      "outputs": [
        {
          "components": [
            {
              "internalType": "uint256",
              "name": "memid",
              "type": "uint256"
            },
            {
              "internalType": "uint256",
              "name": "reqid",
              "type": "uint256"
            },
            {
              "internalType": "bool",
              "name": "reqStatus",
              "type": "bool"
            }
          ],
          "internalType": "struct Greenergy.Request[]",
          "name": "",
          "type": "tuple[]"
        }
      ],
      "stateMutability": "view",
      "type": "function"
    },
    {
      "inputs": [],
      "name": "memberCount",
      "outputs": [
        {
          "internalType": "uint256",
          "name": "",
          "type": "uint256"
        }
      ],
      "stateMutability": "view",
      "type": "function"
    },
    {
      "inputs": [],
      "name": "owner",
      "outputs": [
        {
          "internalType": "address payable",
          "name": "",
          "type": "address"
        }
      ],
      "stateMutability": "view",
      "type": "function"
    },
    {
      "inputs": [],
      "name": "payment",
      "outputs": [],
      "stateMutability": "payable",
      "type": "function"
    },
    {
      "inputs": [
        {
          "internalType": "uint256",
          "name": "_id",
          "type": "uint256"
        }
      ],
      "name": "removeMember",
      "outputs": [],
      "stateMutability": "nonpayable",
      "type": "function"
    },
    {
      "inputs": [],
      "name": "reqCount",
      "outputs": [
        {
          "internalType": "uint256",
          "name": "",
          "type": "uint256"
        }
      ],
      "stateMutability": "view",
      "type": "function"
    },
    {
      "inputs": [],
      "name": "requestSolar",
      "outputs": [],
      "stateMutability": "nonpayable",
      "type": "function"
    },
    {
      "inputs": [],
      "name": "stopRequest",
      "outputs": [],
      "stateMutability": "nonpayable",
      "type": "function"
    }
  ],
  "bytecode": "0x60806040523480156200001157600080fd5b50336000806101000a81548173ffffffffffffffffffffffffffffffffffffffff021916908373ffffffffffffffffffffffffffffffffffffffff160217905550620000626200006860201b60201c565b6200076d565b620000e46040518060400160405280600781526020017f416e74686f6e79000000000000000000000000000000000000000000000000008152506040518060400160405280600481526020017f412d313200000000000000000000000000000000000000000000000000000000815250620002d660201b60201c565b620001606040518060400160405280600581526020017f427269616e0000000000000000000000000000000000000000000000000000008152506040518060400160405280600381526020017f422d320000000000000000000000000000000000000000000000000000000000815250620002d660201b60201c565b620001dc6040518060400160405280600581526020017f43687269730000000000000000000000000000000000000000000000000000008152506040518060400160405280600381526020017f432d390000000000000000000000000000000000000000000000000000000000815250620002d660201b60201c565b620002586040518060400160405280600681526020017f44616e69656c00000000000000000000000000000000000000000000000000008152506040518060400160405280600381526020017f442d330000000000000000000000000000000000000000000000000000000000815250620002d660201b60201c565b620002d46040518060400160405280600581526020017f457468616e0000000000000000000000000000000000000000000000000000008152506040518060400160405280600481526020017f452d313000000000000000000000000000000000000000000000000000000000815250620002d660201b60201c565b565b60008054906101000a900473ffffffffffffffffffffffffffffffffffffffff1673ffffffffffffffffffffffffffffffffffffffff163373ffffffffffffffffffffffffffffffffffffffff161462000367576040517f08c379a00000000000000000000000000000000000000000000000000000000081526004016200035e90620005c8565b60405180910390fd5b62000371620004aa565b6001600454620003829190620005fb565b8160000181815250508281602001819052508181604001819052506001816080019015159081151581525050600681908060018154018082558091505060019003906000526020600020906004020160009091909190915060008201518160000155602082015181600101908051906020019062000402929190620004f1565b50604082015181600201908051906020019062000421929190620004f1565b5060608201518160030160006101000a81548173ffffffffffffffffffffffffffffffffffffffff021916908373ffffffffffffffffffffffffffffffffffffffff16021790555060808201518160030160146101000a81548160ff021916908315150217905550505060046000815480929190620004a09062000698565b9190505550505050565b6040518060a00160405280600081526020016060815260200160608152602001600073ffffffffffffffffffffffffffffffffffffffff1681526020016000151581525090565b828054620004ff9062000662565b90600052602060002090601f0160209004810192826200052357600085556200056f565b82601f106200053e57805160ff19168380011785556200056f565b828001600101855582156200056f579182015b828111156200056e57825182559160200191906001019062000551565b5b5090506200057e919062000582565b5090565b5b808211156200059d57600081600090555060010162000583565b5090565b6000620005b0601e83620005ea565b9150620005bd8262000744565b602082019050919050565b60006020820190508181036000830152620005e381620005a1565b9050919050565b600082825260208201905092915050565b6000620006088262000658565b9150620006158362000658565b9250827fffffffffffffffffffffffffffffffffffffffffffffffffffffffffffffffff038211156200064d576200064c620006e6565b5b828201905092915050565b6000819050919050565b600060028204905060018216806200067b57607f821691505b6020821081141562000692576200069162000715565b5b50919050565b6000620006a58262000658565b91507fffffffffffffffffffffffffffffffffffffffffffffffffffffffffffffffff821415620006db57620006da620006e6565b5b600182019050919050565b7f4e487b7100000000000000000000000000000000000000000000000000000000600052601160045260246000fd5b7f4e487b7100000000000000000000000000000000000000000000000000000000600052602260045260246000fd5b7f4f6e6c7920746865206f776e65722063616e20616464206d656d626572730000600082015250565b612112806200077d6000396000f3fe6080604052600436106100dd5760003560e01c80638da5cb5b1161007f578063a1a74aae11610059578063a1a74aae14610247578063a34d501414610270578063a83dbba314610299578063cb7afff6146102da576100dd565b80638da5cb5b146101da5780638e47cd23146102055780639eab52531461021c576100dd565b806342f6487a116100bb57806342f6487a146101635780634972a4cf1461016d57806365b68624146101845780638813ce12146101af576100dd565b8063040d2762146100e257806311aee380146100f957806340ac999314610124575b600080fd5b3480156100ee57600080fd5b506100f7610303565b005b34801561010557600080fd5b5061010e6104e9565b60405161011b9190611b2b565b60405180910390f35b34801561013057600080fd5b5061014b60048036038101906101469190611601565b6104ef565b60405161015a93929190611ba7565b60405180910390f35b61016b610536565b005b34801561017957600080fd5b5061018261066d565b005b34801561019057600080fd5b506101996108eb565b6040516101a69190611b2b565b60405180910390f35b3480156101bb57600080fd5b506101c46108f1565b6040516101d19190611a09565b60405180910390f35b3480156101e657600080fd5b506101ef61097f565b6040516101fc91906119cc565b60405180910390f35b34801561021157600080fd5b5061021a6109a3565b005b34801561022857600080fd5b50610231610be9565b60405161023e91906119e7565b60405180910390f35b34801561025357600080fd5b5061026e60048036038101906102699190611601565b610de7565b005b34801561027c57600080fd5b5061029760048036038101906102929190611601565b610ee8565b005b3480156102a557600080fd5b506102c060048036038101906102bb9190611601565b6110c1565b6040516102d1959493929190611b46565b60405180910390f35b3480156102e657600080fd5b5061030160048036038101906102fc9190611595565b611244565b005b600160006001600360003373ffffffffffffffffffffffffffffffffffffffff1673ffffffffffffffffffffffffffffffffffffffff168152602001908152602001600020546103539190611d29565b815260200190815260200160002060009054906101000a900460ff166103ae576040517f08c379a00000000000000000000000000000000000000000000000000000000081526004016103a590611b0b565b60405180910390fd5b6000600160006001600360003373ffffffffffffffffffffffffffffffffffffffff1673ffffffffffffffffffffffffffffffffffffffff168152602001908152602001600020546104009190611d29565b815260200190815260200160002060006101000a81548160ff02191690831515021790555060006007600260006001600360003373ffffffffffffffffffffffffffffffffffffffff1673ffffffffffffffffffffffffffffffffffffffff168152602001908152602001600020546104799190611d29565b815260200190815260200160002054815481106104bf577f4e487b7100000000000000000000000000000000000000000000000000000000600052603260045260246000fd5b906000526020600020906003020160020160006101000a81548160ff021916908315150217905550565b60045481565b600781815481106104ff57600080fd5b90600052602060002090600302016000915090508060000154908060010154908060020160009054906101000a900460ff16905083565b60066001600360003373ffffffffffffffffffffffffffffffffffffffff1673ffffffffffffffffffffffffffffffffffffffff168152602001908152602001600020546105849190611d29565b815481106105bb577f4e487b7100000000000000000000000000000000000000000000000000000000600052603260045260246000fd5b906000526020600020906004020160030160149054906101000a900460ff16610619576040517f08c379a000000000000000000000000000000000000000000000000000000000815260040161061090611a8b565b60405180910390fd5b6611c37937e08000600881905550600854341461066b576040517f08c379a000000000000000000000000000000000000000000000000000000000815260040161066290611acb565b60405180910390fd5b565b600160006001600360003373ffffffffffffffffffffffffffffffffffffffff1673ffffffffffffffffffffffffffffffffffffffff168152602001908152602001600020546106bd9190611d29565b815260200190815260200160002060009054906101000a900460ff1615610719576040517f08c379a000000000000000000000000000000000000000000000000000000000815260040161071090611a2b565b60405180910390fd5b61072161140b565b600360003373ffffffffffffffffffffffffffffffffffffffff1673ffffffffffffffffffffffffffffffffffffffff1681526020019081526020016000205481600001818152505060016005546107799190611cd3565b81602001818152505060016005546107919190611cd3565b60026000600360003373ffffffffffffffffffffffffffffffffffffffff1673ffffffffffffffffffffffffffffffffffffffff1681526020019081526020016000205481526020019081526020016000208190555060018160400190151590811515815250506007819080600181540180825580915050600190039060005260206000209060030201600090919091909150600082015181600001556020820151816001015560408201518160020160006101000a81548160ff021916908315150217905550505060018060006001600360003373ffffffffffffffffffffffffffffffffffffffff1673ffffffffffffffffffffffffffffffffffffffff168152602001908152602001600020546108ab9190611d29565b815260200190815260200160002060006101000a81548160ff021916908315150217905550600560008154809291906108e390611e4a565b919050555050565b60055481565b60606007805480602002602001604051908101604052809291908181526020016000905b82821015610976578382906000526020600020906003020160405180606001604052908160008201548152602001600182015481526020016002820160009054906101000a900460ff16151515158152505081526020019060010190610915565b50505050905090565b60008054906101000a900473ffffffffffffffffffffffffffffffffffffffff1681565b610a176040518060400160405280600781526020017f416e74686f6e79000000000000000000000000000000000000000000000000008152506040518060400160405280600481526020017f412d313200000000000000000000000000000000000000000000000000000000815250611244565b610a8b6040518060400160405280600581526020017f427269616e0000000000000000000000000000000000000000000000000000008152506040518060400160405280600381526020017f422d320000000000000000000000000000000000000000000000000000000000815250611244565b610aff6040518060400160405280600581526020017f43687269730000000000000000000000000000000000000000000000000000008152506040518060400160405280600381526020017f432d390000000000000000000000000000000000000000000000000000000000815250611244565b610b736040518060400160405280600681526020017f44616e69656c00000000000000000000000000000000000000000000000000008152506040518060400160405280600381526020017f442d330000000000000000000000000000000000000000000000000000000000815250611244565b610be76040518060400160405280600581526020017f457468616e0000000000000000000000000000000000000000000000000000008152506040518060400160405280600481526020017f452d313000000000000000000000000000000000000000000000000000000000815250611244565b565b60606006805480602002602001604051908101604052809291908181526020016000905b82821015610dde57838290600052602060002090600402016040518060a001604052908160008201548152602001600182018054610c4a90611de7565b80601f0160208091040260200160405190810160405280929190818152602001828054610c7690611de7565b8015610cc35780601f10610c9857610100808354040283529160200191610cc3565b820191906000526020600020905b815481529060010190602001808311610ca657829003601f168201915b50505050508152602001600282018054610cdc90611de7565b80601f0160208091040260200160405190810160405280929190818152602001828054610d0890611de7565b8015610d555780601f10610d2a57610100808354040283529160200191610d55565b820191906000526020600020905b815481529060010190602001808311610d3857829003601f168201915b505050505081526020016003820160009054906101000a900473ffffffffffffffffffffffffffffffffffffffff1673ffffffffffffffffffffffffffffffffffffffff1673ffffffffffffffffffffffffffffffffffffffff1681526020016003820160149054906101000a900460ff16151515158152505081526020019060010190610c0d565b50505050905090565b60008054906101000a900473ffffffffffffffffffffffffffffffffffffffff1673ffffffffffffffffffffffffffffffffffffffff163373ffffffffffffffffffffffffffffffffffffffff1614610e75576040517f08c379a0000000000000000000000000000000000000000000000000000000008152600401610e6c90611aeb565b60405180910390fd5b60006006600183610e869190611d29565b81548110610ebd577f4e487b7100000000000000000000000000000000000000000000000000000000600052603260045260246000fd5b906000526020600020906004020160030160146101000a81548160ff02191690831515021790555050565b600081118015610efa57506004548111155b610f39576040517f08c379a0000000000000000000000000000000000000000000000000000000008152600401610f3090611a6b565b60405180910390fd5b600115156006600183610f4c9190611d29565b81548110610f83577f4e487b7100000000000000000000000000000000000000000000000000000000600052603260045260246000fd5b906000526020600020906004020160030160149054906101000a900460ff16151514610fe4576040517f08c379a0000000000000000000000000000000000000000000000000000000008152600401610fdb90611a4b565b60405180910390fd5b336006600183610ff49190611d29565b8154811061102b577f4e487b7100000000000000000000000000000000000000000000000000000000600052603260045260246000fd5b906000526020600020906004020160030160006101000a81548173ffffffffffffffffffffffffffffffffffffffff021916908373ffffffffffffffffffffffffffffffffffffffff16021790555080600360003373ffffffffffffffffffffffffffffffffffffffff1673ffffffffffffffffffffffffffffffffffffffff1681526020019081526020016000208190555050565b600681815481106110d157600080fd5b90600052602060002090600402016000915090508060000154908060010180546110fa90611de7565b80601f016020809104026020016040519081016040528092919081815260200182805461112690611de7565b80156111735780601f1061114857610100808354040283529160200191611173565b820191906000526020600020905b81548152906001019060200180831161115657829003601f168201915b50505050509080600201805461118890611de7565b80601f01602080910402602001604051908101604052809291908181526020018280546111b490611de7565b80156112015780601f106111d657610100808354040283529160200191611201565b820191906000526020600020905b8154815290600101906020018083116111e457829003601f168201915b5050505050908060030160009054906101000a900473ffffffffffffffffffffffffffffffffffffffff16908060030160149054906101000a900460ff16905085565b60008054906101000a900473ffffffffffffffffffffffffffffffffffffffff1673ffffffffffffffffffffffffffffffffffffffff163373ffffffffffffffffffffffffffffffffffffffff16146112d2576040517f08c379a00000000000000000000000000000000000000000000000000000000081526004016112c990611aab565b60405180910390fd5b6112da61142e565b60016004546112e99190611cd3565b81600001818152505082816020018190525081816040018190525060018160800190151590811515815250506006819080600181540180825580915050600190039060005260206000209060040201600090919091909150600082015181600001556020820151816001019080519060200190611367929190611475565b506040820151816002019080519060200190611384929190611475565b5060608201518160030160006101000a81548173ffffffffffffffffffffffffffffffffffffffff021916908373ffffffffffffffffffffffffffffffffffffffff16021790555060808201518160030160146101000a81548160ff02191690831515021790555050506004600081548092919061140190611e4a565b9190505550505050565b604051806060016040528060008152602001600081526020016000151581525090565b6040518060a00160405280600081526020016060815260200160608152602001600073ffffffffffffffffffffffffffffffffffffffff1681526020016000151581525090565b82805461148190611de7565b90600052602060002090601f0160209004810192826114a357600085556114ea565b82601f106114bc57805160ff19168380011785556114ea565b828001600101855582156114ea579182015b828111156114e95782518255916020019190600101906114ce565b5b5090506114f791906114fb565b5090565b5b808211156115145760008160009055506001016114fc565b5090565b600061152b61152684611c03565b611bde565b90508281526020810184848401111561154357600080fd5b61154e848285611da5565b509392505050565b600082601f83011261156757600080fd5b8135611577848260208601611518565b91505092915050565b60008135905061158f816120c5565b92915050565b600080604083850312156115a857600080fd5b600083013567ffffffffffffffff8111156115c257600080fd5b6115ce85828601611556565b925050602083013567ffffffffffffffff8111156115eb57600080fd5b6115f785828601611556565b9150509250929050565b60006020828403121561161357600080fd5b600061162184828501611580565b91505092915050565b600061163683836118ef565b905092915050565b600061164a838361196c565b60608301905092915050565b61165f81611d5d565b82525050565b61166e81611d5d565b82525050565b600061167f82611c54565b6116898185611c8f565b93508360208202850161169b85611c34565b8060005b858110156116d757848403895281516116b8858261162a565b94506116c383611c75565b925060208a0199505060018101905061169f565b50829750879550505050505092915050565b60006116f482611c5f565b6116fe8185611ca0565b935061170983611c44565b8060005b8381101561173a578151611721888261163e565b975061172c83611c82565b92505060018101905061170d565b5085935050505092915050565b61175081611d6f565b82525050565b61175f81611d6f565b82525050565b600061177082611c6a565b61177a8185611cb1565b935061178a818560208601611db4565b61179381611f20565b840191505092915050565b60006117a982611c6a565b6117b38185611cc2565b93506117c3818560208601611db4565b6117cc81611f20565b840191505092915050565b60006117e4602083611cc2565b91506117ef82611f31565b602082019050919050565b6000611807601e83611cc2565b915061181282611f5a565b602082019050919050565b600061182a600a83611cc2565b915061183582611f83565b602082019050919050565b600061184d603783611cc2565b915061185882611fac565b604082019050919050565b6000611870601e83611cc2565b915061187b82611ffb565b602082019050919050565b6000611893601a83611cc2565b915061189e82612024565b602082019050919050565b60006118b6602183611cc2565b91506118c18261204d565b604082019050919050565b60006118d9601883611cc2565b91506118e48261209c565b602082019050919050565b600060a08301600083015161190760008601826119ae565b506020830151848203602086015261191f8282611765565b915050604083015184820360408601526119398282611765565b915050606083015161194e6060860182611656565b5060808301516119616080860182611747565b508091505092915050565b60608201600082015161198260008501826119ae565b50602082015161199560208501826119ae565b5060408201516119a86040850182611747565b50505050565b6119b781611d9b565b82525050565b6119c681611d9b565b82525050565b60006020820190506119e16000830184611665565b92915050565b60006020820190508181036000830152611a018184611674565b905092915050565b60006020820190508181036000830152611a2381846116e9565b905092915050565b60006020820190508181036000830152611a44816117d7565b9050919050565b60006020820190508181036000830152611a64816117fa565b9050919050565b60006020820190508181036000830152611a848161181d565b9050919050565b60006020820190508181036000830152611aa481611840565b9050919050565b60006020820190508181036000830152611ac481611863565b9050919050565b60006020820190508181036000830152611ae481611886565b9050919050565b60006020820190508181036000830152611b04816118a9565b9050919050565b60006020820190508181036000830152611b24816118cc565b9050919050565b6000602082019050611b4060008301846119bd565b92915050565b600060a082019050611b5b60008301886119bd565b8181036020830152611b6d818761179e565b90508181036040830152611b81818661179e565b9050611b906060830185611665565b611b9d6080830184611756565b9695505050505050565b6000606082019050611bbc60008301866119bd565b611bc960208301856119bd565b611bd66040830184611756565b949350505050565b6000611be8611bf9565b9050611bf48282611e19565b919050565b6000604051905090565b600067ffffffffffffffff821115611c1e57611c1d611ef1565b5b611c2782611f20565b9050602081019050919050565b6000819050602082019050919050565b6000819050602082019050919050565b600081519050919050565b600081519050919050565b600081519050919050565b6000602082019050919050565b6000602082019050919050565b600082825260208201905092915050565b600082825260208201905092915050565b600082825260208201905092915050565b600082825260208201905092915050565b6000611cde82611d9b565b9150611ce983611d9b565b9250827fffffffffffffffffffffffffffffffffffffffffffffffffffffffffffffffff03821115611d1e57611d1d611e93565b5b828201905092915050565b6000611d3482611d9b565b9150611d3f83611d9b565b925082821015611d5257611d51611e93565b5b828203905092915050565b6000611d6882611d7b565b9050919050565b60008115159050919050565b600073ffffffffffffffffffffffffffffffffffffffff82169050919050565b6000819050919050565b82818337600083830152505050565b60005b83811015611dd2578082015181840152602081019050611db7565b83811115611de1576000848401525b50505050565b60006002820490506001821680611dff57607f821691505b60208210811415611e1357611e12611ec2565b5b50919050565b611e2282611f20565b810181811067ffffffffffffffff82111715611e4157611e40611ef1565b5b80604052505050565b6000611e5582611d9b565b91507fffffffffffffffffffffffffffffffffffffffffffffffffffffffffffffffff821415611e8857611e87611e93565b5b600182019050919050565b7f4e487b7100000000000000000000000000000000000000000000000000000000600052601160045260246000fd5b7f4e487b7100000000000000000000000000000000000000000000000000000000600052602260045260246000fd5b7f4e487b7100000000000000000000000000000000000000000000000000000000600052604160045260246000fd5b6000601f19601f8301169050919050565b7f416e20616374697665207265717565737420616c726561647920657869737473600082015250565b7f546865206d656d626572206163636f756e742069732064697361626c65640000600082015250565b7f496e76616c696420494400000000000000000000000000000000000000000000600082015250565b7f4f6e6c7920616374697665206d656d62657273206861766520746f207061792060008201527f746865206d61696e7461696e616e636520616d6f756e74000000000000000000602082015250565b7f4f6e6c7920746865206f776e65722063616e20616464206d656d626572730000600082015250565b7f496e73756666696369656e7420746f20636f7665722066656573000000000000600082015250565b7f4f6e6c7920746865206f776e65722063616e2072656d6f7665206d656d62657260008201527f7300000000000000000000000000000000000000000000000000000000000000602082015250565b7f4e6f206163746976652072657175657374206578697374730000000000000000600082015250565b6120ce81611d9b565b81146120d957600080fd5b5056fea26469706673582212204509a3dd734eba002a220f0696d33b28a92273a1f100466bd39fb69c4c70a22164736f6c63430008040033",
  "linkReferences": {},
  "deployedLinkReferences": {}
}