{
  "_format": "hh-sol-artifact-1",
  "contractName": "Greenergy",
  "sourceName": "contracts/Greenergy.sol",
  "abi": [
    {
      "inputs": [],
      "stateMutability": "nonpayable",
      "type": "constructor"
    },
    {
      "inputs": [
        {
          "internalType": "uint256",
          "name": "",
          "type": "uint256"
        }
      ],
      "name": "Members",
      "outputs": [
        {
          "internalType": "uint256",
          "name": "id",
          "type": "uint256"
        },
        {
          "internalType": "string",
          "name": "name",
          "type": "string"
        },
        {
          "internalType": "string",
          "name": "house",
          "type": "string"
        },
        {
          "internalType": "address",
          "name": "acc",
          "type": "address"
        },
        {
          "internalType": "bool",
          "name": "active",
          "type": "bool"
        }
      ],
      "stateMutability": "view",
      "type": "function"
    },
    {
      "inputs": [
        {
          "internalType": "uint256",
          "name": "",
          "type": "uint256"
        }
      ],
      "name": "Requests",
      "outputs": [
        {
          "internalType": "uint256",
          "name": "memid",
          "type": "uint256"
        },
        {
          "internalType": "uint256",
          "name": "reqid",
          "type": "uint256"
        },
        {
          "internalType": "bool",
          "name": "reqStatus",
          "type": "bool"
        }
      ],
      "stateMutability": "view",
      "type": "function"
    },
    {
      "inputs": [
        {
          "internalType": "uint256",
          "name": "_id",
          "type": "uint256"
        }
      ],
      "name": "addMemberWallet",
      "outputs": [],
      "stateMutability": "nonpayable",
      "type": "function"
    },
    {
      "inputs": [],
      "name": "addMembers",
      "outputs": [],
      "stateMutability": "nonpayable",
      "type": "function"
    },
    {
      "inputs": [
        {
          "internalType": "string",
          "name": "_name",
          "type": "string"
        },
        {
          "internalType": "string",
          "name": "_house",
          "type": "string"
        }
      ],
      "name": "createMember",
      "outputs": [],
      "stateMutability": "nonpayable",
      "type": "function"
    },
    {
      "inputs": [],
      "name": "memberCount",
      "outputs": [
        {
          "internalType": "uint256",
          "name": "",
          "type": "uint256"
        }
      ],
      "stateMutability": "view",
      "type": "function"
    },
    {
      "inputs": [],
      "name": "owner",
      "outputs": [
        {
          "internalType": "address",
          "name": "",
          "type": "address"
        }
      ],
      "stateMutability": "view",
      "type": "function"
    },
    {
      "inputs": [
        {
          "internalType": "uint256",
          "name": "_id",
          "type": "uint256"
        }
      ],
      "name": "removeMember",
      "outputs": [],
      "stateMutability": "nonpayable",
      "type": "function"
    },
    {
      "inputs": [],
      "name": "reqCount",
      "outputs": [
        {
          "internalType": "uint256",
          "name": "",
          "type": "uint256"
        }
      ],
      "stateMutability": "view",
      "type": "function"
    },
    {
      "inputs": [],
      "name": "requestSolar",
      "outputs": [],
      "stateMutability": "nonpayable",
      "type": "function"
    },
    {
      "inputs": [],
      "name": "stopRequest",
      "outputs": [],
      "stateMutability": "nonpayable",
      "type": "function"
    }
  ],
  "bytecode": "0x60806040523480156200001157600080fd5b50336000806101000a81548173ffffffffffffffffffffffffffffffffffffffff021916908373ffffffffffffffffffffffffffffffffffffffff160217905550620000626200006860201b60201c565b6200076d565b620000e46040518060400160405280600781526020017f416e74686f6e79000000000000000000000000000000000000000000000000008152506040518060400160405280600481526020017f412d313200000000000000000000000000000000000000000000000000000000815250620002d660201b60201c565b620001606040518060400160405280600581526020017f427269616e0000000000000000000000000000000000000000000000000000008152506040518060400160405280600381526020017f422d320000000000000000000000000000000000000000000000000000000000815250620002d660201b60201c565b620001dc6040518060400160405280600581526020017f43687269730000000000000000000000000000000000000000000000000000008152506040518060400160405280600381526020017f432d390000000000000000000000000000000000000000000000000000000000815250620002d660201b60201c565b620002586040518060400160405280600681526020017f44616e69656c00000000000000000000000000000000000000000000000000008152506040518060400160405280600381526020017f442d330000000000000000000000000000000000000000000000000000000000815250620002d660201b60201c565b620002d46040518060400160405280600581526020017f457468616e0000000000000000000000000000000000000000000000000000008152506040518060400160405280600481526020017f452d313000000000000000000000000000000000000000000000000000000000815250620002d660201b60201c565b565b60008054906101000a900473ffffffffffffffffffffffffffffffffffffffff1673ffffffffffffffffffffffffffffffffffffffff163373ffffffffffffffffffffffffffffffffffffffff161462000367576040517f08c379a00000000000000000000000000000000000000000000000000000000081526004016200035e90620005c8565b60405180910390fd5b62000371620004aa565b6001600454620003829190620005fb565b8160000181815250508281602001819052508181604001819052506001816080019015159081151581525050600681908060018154018082558091505060019003906000526020600020906004020160009091909190915060008201518160000155602082015181600101908051906020019062000402929190620004f1565b50604082015181600201908051906020019062000421929190620004f1565b5060608201518160030160006101000a81548173ffffffffffffffffffffffffffffffffffffffff021916908373ffffffffffffffffffffffffffffffffffffffff16021790555060808201518160030160146101000a81548160ff021916908315150217905550505060046000815480929190620004a09062000698565b9190505550505050565b6040518060a00160405280600081526020016060815260200160608152602001600073ffffffffffffffffffffffffffffffffffffffff1681526020016000151581525090565b828054620004ff9062000662565b90600052602060002090601f0160209004810192826200052357600085556200056f565b82601f106200053e57805160ff19168380011785556200056f565b828001600101855582156200056f579182015b828111156200056e57825182559160200191906001019062000551565b5b5090506200057e919062000582565b5090565b5b808211156200059d57600081600090555060010162000583565b5090565b6000620005b0601e83620005ea565b9150620005bd8262000744565b602082019050919050565b60006020820190508181036000830152620005e381620005a1565b9050919050565b600082825260208201905092915050565b6000620006088262000658565b9150620006158362000658565b9250827fffffffffffffffffffffffffffffffffffffffffffffffffffffffffffffffff038211156200064d576200064c620006e6565b5b828201905092915050565b6000819050919050565b600060028204905060018216806200067b57607f821691505b6020821081141562000692576200069162000715565b5b50919050565b6000620006a58262000658565b91507fffffffffffffffffffffffffffffffffffffffffffffffffffffffffffffffff821415620006db57620006da620006e6565b5b600182019050919050565b7f4e487b7100000000000000000000000000000000000000000000000000000000600052601160045260246000fd5b7f4e487b7100000000000000000000000000000000000000000000000000000000600052602260045260246000fd5b7f4f6e6c7920746865206f776e65722063616e20616464206d656d626572730000600082015250565b611995806200077d6000396000f3fe608060405234801561001057600080fd5b50600436106100a95760003560e01c80638da5cb5b116100715780638da5cb5b146101305780638e47cd231461014e578063a1a74aae14610158578063a34d501414610174578063a83dbba314610190578063cb7afff6146101c4576100a9565b8063040d2762146100ae57806311aee380146100b857806340ac9993146100d65780634972a4cf1461010857806365b6862414610112575b600080fd5b6100b66101e0565b005b6100c06103c6565b6040516100cd9190611480565b60405180910390f35b6100f060048036038101906100eb9190611201565b6103cc565b6040516100ff939291906114fc565b60405180910390f35b610110610413565b005b61011a610691565b6040516101279190611480565b60405180910390f35b610138610697565b6040516101459190611385565b60405180910390f35b6101566106bb565b005b610172600480360381019061016d9190611201565b610901565b005b61018e60048036038101906101899190611201565b610a02565b005b6101aa60048036038101906101a59190611201565b610cc1565b6040516101bb95949392919061149b565b60405180910390f35b6101de60048036038101906101d99190611195565b610e44565b005b600160006001600360003373ffffffffffffffffffffffffffffffffffffffff1673ffffffffffffffffffffffffffffffffffffffff1681526020019081526020016000205461023091906115fb565b815260200190815260200160002060009054906101000a900460ff1661028b576040517f08c379a000000000000000000000000000000000000000000000000000000000815260040161028290611460565b60405180910390fd5b6000600160006001600360003373ffffffffffffffffffffffffffffffffffffffff1673ffffffffffffffffffffffffffffffffffffffff168152602001908152602001600020546102dd91906115fb565b815260200190815260200160002060006101000a81548160ff02191690831515021790555060006007600260006001600360003373ffffffffffffffffffffffffffffffffffffffff1673ffffffffffffffffffffffffffffffffffffffff1681526020019081526020016000205461035691906115fb565b8152602001908152602001600020548154811061039c577f4e487b7100000000000000000000000000000000000000000000000000000000600052603260045260246000fd5b906000526020600020906003020160020160006101000a81548160ff021916908315150217905550565b60045481565b600781815481106103dc57600080fd5b90600052602060002090600302016000915090508060000154908060010154908060020160009054906101000a900460ff16905083565b600160006001600360003373ffffffffffffffffffffffffffffffffffffffff1673ffffffffffffffffffffffffffffffffffffffff1681526020019081526020016000205461046391906115fb565b815260200190815260200160002060009054906101000a900460ff16156104bf576040517f08c379a00000000000000000000000000000000000000000000000000000000081526004016104b6906113a0565b60405180910390fd5b6104c761100b565b600360003373ffffffffffffffffffffffffffffffffffffffff1673ffffffffffffffffffffffffffffffffffffffff16815260200190815260200160002054816000018181525050600160055461051f91906115a5565b816020018181525050600160055461053791906115a5565b60026000600360003373ffffffffffffffffffffffffffffffffffffffff1673ffffffffffffffffffffffffffffffffffffffff1681526020019081526020016000205481526020019081526020016000208190555060018160400190151590811515815250506007819080600181540180825580915050600190039060005260206000209060030201600090919091909150600082015181600001556020820151816001015560408201518160020160006101000a81548160ff021916908315150217905550505060018060006001600360003373ffffffffffffffffffffffffffffffffffffffff1673ffffffffffffffffffffffffffffffffffffffff1681526020019081526020016000205461065191906115fb565b815260200190815260200160002060006101000a81548160ff021916908315150217905550600560008154809291906106899061171c565b919050555050565b60055481565b60008054906101000a900473ffffffffffffffffffffffffffffffffffffffff1681565b61072f6040518060400160405280600781526020017f416e74686f6e79000000000000000000000000000000000000000000000000008152506040518060400160405280600481526020017f412d313200000000000000000000000000000000000000000000000000000000815250610e44565b6107a36040518060400160405280600581526020017f427269616e0000000000000000000000000000000000000000000000000000008152506040518060400160405280600381526020017f422d320000000000000000000000000000000000000000000000000000000000815250610e44565b6108176040518060400160405280600581526020017f43687269730000000000000000000000000000000000000000000000000000008152506040518060400160405280600381526020017f432d390000000000000000000000000000000000000000000000000000000000815250610e44565b61088b6040518060400160405280600681526020017f44616e69656c00000000000000000000000000000000000000000000000000008152506040518060400160405280600381526020017f442d330000000000000000000000000000000000000000000000000000000000815250610e44565b6108ff6040518060400160405280600581526020017f457468616e0000000000000000000000000000000000000000000000000000008152506040518060400160405280600481526020017f452d313000000000000000000000000000000000000000000000000000000000815250610e44565b565b60008054906101000a900473ffffffffffffffffffffffffffffffffffffffff1673ffffffffffffffffffffffffffffffffffffffff163373ffffffffffffffffffffffffffffffffffffffff161461098f576040517f08c379a000000000000000000000000000000000000000000000000000000000815260040161098690611440565b60405180910390fd5b600060066001836109a091906115fb565b815481106109d7577f4e487b7100000000000000000000000000000000000000000000000000000000600052603260045260246000fd5b906000526020600020906004020160030160146101000a81548160ff02191690831515021790555050565b600081118015610a1457506004548111155b610a53576040517f08c379a0000000000000000000000000000000000000000000000000000000008152600401610a4a906113e0565b60405180910390fd5b600073ffffffffffffffffffffffffffffffffffffffff166006600183610a7a91906115fb565b81548110610ab1577f4e487b7100000000000000000000000000000000000000000000000000000000600052603260045260246000fd5b906000526020600020906004020160030160009054906101000a900473ffffffffffffffffffffffffffffffffffffffff1673ffffffffffffffffffffffffffffffffffffffff1614610b39576040517f08c379a0000000000000000000000000000000000000000000000000000000008152600401610b3090611420565b60405180910390fd5b600115156006600183610b4c91906115fb565b81548110610b83577f4e487b7100000000000000000000000000000000000000000000000000000000600052603260045260246000fd5b906000526020600020906004020160030160149054906101000a900460ff16151514610be4576040517f08c379a0000000000000000000000000000000000000000000000000000000008152600401610bdb906113c0565b60405180910390fd5b336006600183610bf491906115fb565b81548110610c2b577f4e487b7100000000000000000000000000000000000000000000000000000000600052603260045260246000fd5b906000526020600020906004020160030160006101000a81548173ffffffffffffffffffffffffffffffffffffffff021916908373ffffffffffffffffffffffffffffffffffffffff16021790555080600360003373ffffffffffffffffffffffffffffffffffffffff1673ffffffffffffffffffffffffffffffffffffffff1681526020019081526020016000208190555050565b60068181548110610cd157600080fd5b9060005260206000209060040201600091509050806000015490806001018054610cfa906116b9565b80601f0160208091040260200160405190810160405280929190818152602001828054610d26906116b9565b8015610d735780601f10610d4857610100808354040283529160200191610d73565b820191906000526020600020905b815481529060010190602001808311610d5657829003601f168201915b505050505090806002018054610d88906116b9565b80601f0160208091040260200160405190810160405280929190818152602001828054610db4906116b9565b8015610e015780601f10610dd657610100808354040283529160200191610e01565b820191906000526020600020905b815481529060010190602001808311610de457829003601f168201915b5050505050908060030160009054906101000a900473ffffffffffffffffffffffffffffffffffffffff16908060030160149054906101000a900460ff16905085565b60008054906101000a900473ffffffffffffffffffffffffffffffffffffffff1673ffffffffffffffffffffffffffffffffffffffff163373ffffffffffffffffffffffffffffffffffffffff1614610ed2576040517f08c379a0000000000000000000000000000000000000000000000000000000008152600401610ec990611400565b60405180910390fd5b610eda61102e565b6001600454610ee991906115a5565b81600001818152505082816020018190525081816040018190525060018160800190151590811515815250506006819080600181540180825580915050600190039060005260206000209060040201600090919091909150600082015181600001556020820151816001019080519060200190610f67929190611075565b506040820151816002019080519060200190610f84929190611075565b5060608201518160030160006101000a81548173ffffffffffffffffffffffffffffffffffffffff021916908373ffffffffffffffffffffffffffffffffffffffff16021790555060808201518160030160146101000a81548160ff0219169083151502179055505050600460008154809291906110019061171c565b9190505550505050565b604051806060016040528060008152602001600081526020016000151581525090565b6040518060a00160405280600081526020016060815260200160608152602001600073ffffffffffffffffffffffffffffffffffffffff1681526020016000151581525090565b828054611081906116b9565b90600052602060002090601f0160209004810192826110a357600085556110ea565b82601f106110bc57805160ff19168380011785556110ea565b828001600101855582156110ea579182015b828111156110e95782518255916020019190600101906110ce565b5b5090506110f791906110fb565b5090565b5b808211156111145760008160009055506001016110fc565b5090565b600061112b61112684611558565b611533565b90508281526020810184848401111561114357600080fd5b61114e848285611677565b509392505050565b600082601f83011261116757600080fd5b8135611177848260208601611118565b91505092915050565b60008135905061118f81611948565b92915050565b600080604083850312156111a857600080fd5b600083013567ffffffffffffffff8111156111c257600080fd5b6111ce85828601611156565b925050602083013567ffffffffffffffff8111156111eb57600080fd5b6111f785828601611156565b9150509250929050565b60006020828403121561121357600080fd5b600061122184828501611180565b91505092915050565b6112338161162f565b82525050565b61124281611641565b82525050565b600061125382611589565b61125d8185611594565b935061126d818560208601611686565b611276816117f2565b840191505092915050565b600061128e602083611594565b915061129982611803565b602082019050919050565b60006112b1601e83611594565b91506112bc8261182c565b602082019050919050565b60006112d4600a83611594565b91506112df82611855565b602082019050919050565b60006112f7601e83611594565b91506113028261187e565b602082019050919050565b600061131a601583611594565b9150611325826118a7565b602082019050919050565b600061133d602183611594565b9150611348826118d0565b604082019050919050565b6000611360601883611594565b915061136b8261191f565b602082019050919050565b61137f8161166d565b82525050565b600060208201905061139a600083018461122a565b92915050565b600060208201905081810360008301526113b981611281565b9050919050565b600060208201905081810360008301526113d9816112a4565b9050919050565b600060208201905081810360008301526113f9816112c7565b9050919050565b60006020820190508181036000830152611419816112ea565b9050919050565b600060208201905081810360008301526114398161130d565b9050919050565b6000602082019050818103600083015261145981611330565b9050919050565b6000602082019050818103600083015261147981611353565b9050919050565b60006020820190506114956000830184611376565b92915050565b600060a0820190506114b06000830188611376565b81810360208301526114c28187611248565b905081810360408301526114d68186611248565b90506114e5606083018561122a565b6114f26080830184611239565b9695505050505050565b60006060820190506115116000830186611376565b61151e6020830185611376565b61152b6040830184611239565b949350505050565b600061153d61154e565b905061154982826116eb565b919050565b6000604051905090565b600067ffffffffffffffff821115611573576115726117c3565b5b61157c826117f2565b9050602081019050919050565b600081519050919050565b600082825260208201905092915050565b60006115b08261166d565b91506115bb8361166d565b9250827fffffffffffffffffffffffffffffffffffffffffffffffffffffffffffffffff038211156115f0576115ef611765565b5b828201905092915050565b60006116068261166d565b91506116118361166d565b92508282101561162457611623611765565b5b828203905092915050565b600061163a8261164d565b9050919050565b60008115159050919050565b600073ffffffffffffffffffffffffffffffffffffffff82169050919050565b6000819050919050565b82818337600083830152505050565b60005b838110156116a4578082015181840152602081019050611689565b838111156116b3576000848401525b50505050565b600060028204905060018216806116d157607f821691505b602082108114156116e5576116e4611794565b5b50919050565b6116f4826117f2565b810181811067ffffffffffffffff82111715611713576117126117c3565b5b80604052505050565b60006117278261166d565b91507fffffffffffffffffffffffffffffffffffffffffffffffffffffffffffffffff82141561175a57611759611765565b5b600182019050919050565b7f4e487b7100000000000000000000000000000000000000000000000000000000600052601160045260246000fd5b7f4e487b7100000000000000000000000000000000000000000000000000000000600052602260045260246000fd5b7f4e487b7100000000000000000000000000000000000000000000000000000000600052604160045260246000fd5b6000601f19601f8301169050919050565b7f416e20616374697665207265717565737420616c726561647920657869737473600082015250565b7f546865206d656d626572206163636f756e742069732064697361626c65640000600082015250565b7f496e76616c696420494400000000000000000000000000000000000000000000600082015250565b7f4f6e6c7920746865206f776e65722063616e20616464206d656d626572730000600082015250565b7f57616c6c657420616c7265616479206c696e6b65640000000000000000000000600082015250565b7f4f6e6c7920746865206f776e65722063616e2072656d6f7665206d656d62657260008201527f7300000000000000000000000000000000000000000000000000000000000000602082015250565b7f4e6f206163746976652072657175657374206578697374730000000000000000600082015250565b6119518161166d565b811461195c57600080fd5b5056fea2646970667358221220c3e90109ae8eb04043b2464eccf56a47ad38e27fb0965880c0122c5946b6303764736f6c63430008040033",
  "linkReferences": {},
  "deployedLinkReferences": {}
}